:041000000CEF08F0F9
:10100800FACF01F0FBCF02F0E9CF03F0FBED3EF0A1
:0410180032EF3EF085
:107C3A00DF0F0FDFE8CF0FF0FA0E00F0E82EFDD7C6
:107C4A000F2EFAD71200E8CF0FF00FC0A9FFA694A3
:107C5A00A69EA69CA680A8501200226A3A0EF66E2C
:107C6A007C0EF76E000EF86E00EE1EF010EE04F0B9
:107C7A000900F5CFEEFFE550E150FAE1000EF86E8B
:107C8A00000165EF3EF00F501102F3CF13F0F4CF6D
:107C9A0014F00F501202F3CFF4FFF36AF3501326D5
:107CAA00F450142210501102F3CFF4FFF36AF35088
:107CBA001326F450142213C00FF014C010F012004F
:107CCA00A6EC3EF084A6FF007C0E106E1F0E0F6E0F
:107CDA007DEC3FF0000E166E640E156E82EC3EF0DF
:107CEA007C0E106E0F0E0F6E7DEC3FF0000E166EBE
:107CFA00640E156E82EC3EF0E5D72050FD0FA96E9A
:107D0A002050A9240B0BA66EA866FED7000E186E8B
:107D1A00000E176E05D0010E1FEC3EF0174A182A06
:107D2A0015C00FF016C010F0000E126E0C0E116E78
:107D3A0048EC3EF00F50175C10501858D8B012009B
:107D4A00EAD7FD0EA96EA9500B0BA66EA866FED740
:107D5A001EC016F01FC017F0000E126E7E0E116EB6
:107D6A00A9CF0FF0106A2FEC3FF00F3A103AF00E3D
:107D7A0010160F500F0B1012F00E0F160FC018F03E
:107D8A0010C019F0D0EC3EF01650216E215028ECAC
:107D9A003EF0206E1200000E1C6E000E1B6E195073
:107DAA001810D8B41ED01A6E010E1D6E1A5004D0C7
:107DBA00D890183619361D2A19AEFAD7D8901B361C
:107DCA001C361850165C19501758D8A005D01850F0
:107DDA00165E1950175A1B80D890193218321D2E68
:107DEA00EDD71BC016F01CC017F012000600EACF30
:107DFA0004F0E1CF05F0E2CF06F0D9CF07F0DACFF1
:107E0A0008F0F3CF09F0F4CF0AF0F6CF0BF0F7CF72
:107E1A000CF0F8CF0DF0F5CF0EF00EC0F5FF0DC047
:107E2A00F8FF0CC0F7FF0BC0F6FF0AC0F4FF09C049
:107E3A00F3FF08C0DAFF07C0D9FF06C0E2FF05C09A
:107E4A00E1FF04C0EAFF03C0E9FF02C0FBFF01C073
:107E5A00FAFF1100136E000E156E13501050800AAF
:107E6A00F36E800EF35C000ED8B40F5CD8B008D065
:107E7A000F6C101ED8B0102A136E010E156E135017
:107E8A001250800AF36E800EF35C000ED8B4115CB7
:107E9A00D8B004D0116C121ED8B0122A1250111088
:107EAA00D8B41AD0136E010E146E135004D0D890A1
:107EBA0011361236142A12AEFAD711500F5C12502C
:107ECA001058D8A004D011500F5E1250105AD890F2
:107EDA0012321132142EF1D71550D8B404D00F6CC7
:107EEA00101ED8B0102A0FC00FF010C010F01200E8
:107EFA003CD0929080707ED0929280727BD0929485
:107F0A00807478D09296807675D09298807872D064
:107F1A00929A807A6FD0939081706CD0939281728A
:107F2A0069D09394817466D09396817663D093983E
:107F3A00817860D0939A817A5DD0939C817C5AD063
:107F4A00939E817E57D09490827054D0949282727C
:107F5A0051D0949482744ED0949C827C4BD0949E3F
:107F6A00827E48D0959E837E45D00FC011F010C006
:107F7A0012F012507C0AD8A43DD01150000AD8B48D
:107F8A00B8D7010AD8B4B8D7030AD8B4B8D7010AFF
:107F9A00D8B4B8D7070AD8B4B8D7010AD8B4B8D76A
:107FAA000D0AD8B4B8D7010AD8B4B8D7030AD8B4D6
:107FBA00B8D7010AD8B4B8D7070AD8B4B8D7010ACB
:107FCA00D8B4B8D7030AD8B4B8D7010AD8B4B8D73E
:107FDA001F0AD8B4B8D7010AD8B4B8D7030AD8B494
:107FEA00B8D7040AD8B4B8D7010AD8B4B8D7080A97
:067FFA00D8B4B8D7120054
:020000040020DA
:08000000FFFFFFFFFFFFFFFF00
:020000040030CA
:0E00000000051F1FFF8385FF0FC00FE00F409C
:00000001FF
