:020000040000FA
:06000000E7EF1AF0120008
:06100000E7EF1AF01200F8
:06100800ECEF16F01200EF
:021018001200C4
:06102A0001000836000081
:08103000A80000002A000000E6
:08103800D9CFE6FFE1CFD9FF9B
:10104000D08EF28EFD0EDBCF08F0FE0EDBCF09F066
:10105000200E081802E19D0E091847E0400E0818FE
:1010600002E19D0E09183FE0100E081802E1F00E93
:10107000091836E0080E081802E1F00E09182DE0F4
:10108000100E081802E1F20E091824E0020E0818EA
:1010900002E1A00E09181BE0020E081802E19D0EE5
:1010A000091812E0010E081802E19D0E091809E066
:1010B000200E08181CE1F20E091819E1F28AD58EEB
:1010C00016D09D80CD8013D09D82CA8410D0A0827E
:1010D000B1800DD0F288F19C0AD0F086F19A07D049
:1010E000F088F19804D09D8C02D09D8A9F8AE552A9
:1010F000E7CFD9FF1200AAC092FF1200AAC093FF47
:101100001200AAC094FF12009268120093681200A5
:1011100094681200D180120004001200D9CFE6FFBB
:10112000E1CFD9FFFD0EDBCF08F0FE0EDBCF09F0DB
:10113000820E081802E10F0E091801E1C3D0170E44
:10114000081802E17C0E091801E1B9D0160E081842
:1011500002E17C0E091801E1AFD0120E081802E17D
:101160007C0E091801E1A5D0110E081802E17C0ED1
:10117000091801E19BD0100E081802E17C0E091835
:1011800001E191D0810E081802E10F0E091801E16A
:1011900087D00F0E081802E17C0E091801E17DD0FE
:1011A0000E0E081802E17C0E091874E00D0E0818E6
:1011B00002E17C0E09186BE00C0E081802E17C0EAF
:1011C000091862E00B0E081802E17C0E091859E0BC
:1011D0000A0E081802E17C0E091850E0090E0818E2
:1011E00002E17C0E091847E0080E081802E17C0EA7
:1011F00009183EE0800E081802E10F0E091835E0CC
:10120000050E081802E17C0E09182CE0040E0818DF
:1012100002E17C0E091823E0030E081802E17C0E9F
:1012200009181AE0020E081802E17C0E091811E0F4
:10123000010E081802E17C0E091808E0085044E18C
:101240007C0E091841E1929080803ED0929280827B
:101250003BD09294808438D09296808635D09298F4
:10126000808832D0929A808A2FD0926A89682CD056
:101270009390818029D09392818226D09394818407
:1012800023D09396818620D0939881881DD0939AFD
:10129000818A1AD0939C818C17D0939E818E14D012
:1012A000936A8A6811D0949082800ED09492828240
:1012B0000BD09494828408D0949C828C05D0949E08
:1012C000828E02D0946A8B68E552E7CFD9FF120074
:1012D000D9CFE6FFE1CFD9FFFD0EDBCF08F0FE0E40
:1012E000DBCF09F0820E081802E10F0E091801E1A8
:1012F000C3D0170E081802E17C0E091801E1B9D01D
:10130000160E081802E17C0E091801E1AFD0120E8A
:10131000081802E17C0E091801E1A5D0110E081889
:1013200002E17C0E091801E19BD0100E081802E1C1
:101330007C0E091801E191D0810E081802E10F0E10
:10134000091801E187D00F0E081802E17C0E091878
:1013500001E17DD00E0E081802E17C0E091874E040
:101360000D0E081802E17C0E09186BE00C0E08182F
:1013700002E17C0E091862E00B0E081802E17C0EF7
:10138000091859E00A0E081802E17C0E091850E00D
:10139000090E081802E17C0E091847E0080E08182B
:1013A00002E17C0E09183EE0800E081802E10F0EE3
:1013B000091835E0050E081802E17C0E09182CE02A
:1013C000040E081802E17C0E091823E0030E081829
:1013D00002E17C0E09181AE0020E081802E17C0EE8
:1013E000091811E0010E081802E17C0E091808E046
:1013F000085044E17C0E091841E1929080903ED063
:10140000929280923BD09294809438D0929680961B
:1014100035D09298809832D0929A809A2FD0926A42
:10142000896A2CD09390819029D09392819226D072
:101430009394819423D09396819620D09398819809
:101440001DD0939A819A1AD0939C819C17D0939E19
:10145000819E14D0936A8A6A11D0949082900ED0A3
:10146000949282920BD09494829408D0949C829C03
:1014700005D0949E829E02D0946A8B6AE552E7CF93
:10148000D9FF1200D9CFE6FFE1CFD9FFFD0EDBCFA8
:1014900008F0FE0EDBCF09F01F0E081802E17C0EEB
:1014A000091801E1AFD0170E081802E17C0E0918E7
:1014B00001E1A5D0160E081802E17C0E091801E121
:1014C0009BD0120E081802E17C0E091801E191D0A0
:1014D000110E081802E17C0E091801E187D0100EE8
:1014E000081802E17C0E091801E17DD00F0E0818E2
:1014F00002E17C0E091874E00E0E081802E17C0E61
:1015000009186BE00D0E081802E17C0E091862E064
:101510000C0E081802E17C0E091859E00B0E081891
:1015200002E17C0E091850E00A0E081802E17C0E58
:10153000091847E0090E081802E17C0E09183EE080
:10154000080E081802E17C0E091835E0050E08188F
:1015500002E17C0E09182CE0040E081802E17C0E52
:10156000091823E0030E081802E17C0E09181AE09E
:10157000020E081802E17C0E091811E0010E08188D
:1015800002E17C0E091808E008503EE17C0E0918C3
:101590003BE19290807038D09292807235D09294D4
:1015A000807432D0929680762FD0929880782CD00A
:1015B000929A807A29D09390817026D093928172EA
:1015C00023D09394817420D0939681761DD09398E4
:1015D00081781AD0939A817A17D0939C817C14D009
:1015E000939E817E11D0949082700ED094928272DC
:1015F0000BD09494827408D0949C827C05D0949EE5
:10160000827E02D0959E837EE552E7CFD9FF1200FD
:10161000D9CFE6FFE1CFD9FFFD0EDBCF08F0FE0EFC
:10162000DBCF09F0170E081802E17C0E091801E162
:1016300019D1160E081802E17C0E091801E109D132
:10164000120E081802E17C0E091801E1F9D0110E02
:10165000081802E17C0E091801E1E9D0100E081803
:1016600002E17C0E091801E1D9D00F0E081802E141
:101670007C0E091801E1C9D00E0E081802E17C0E9B
:10168000091801E1B9D00D0E081802E17C0E091805
:1016900001E1A9D00C0E081802E17C0E091801E145
:1016A00099D00B0E081802E17C0E091801E189D0CF
:1016B0000A0E081802E17C0E091801E179D0090E22
:1016C000081802E17C0E09186AE0080E081802E109
:1016D0007C0E09185BE0050E081802E17C0E091863
:1016E0004CE0040E081802E17C0E09183DE0030EE0
:1016F000081802E17C0E09182EE0020E081802E11B
:101700007C0E09181FE0010E081802E17C0E091872
:1017100010E0085001E0ADD07C0E091801E0A9D01E
:101720009290FB0EDB50E8B08080E8B0A2D08090B1
:10173000A0D09292FB0EDB50E8B08082E8B099D046
:10174000809297D09294FB0EDB50E8B08084E8B092
:1017500090D080948ED09296FB0EDB50E8B08086BD
:10176000E8B087D0809685D09298FB0EDB50E8B029
:101770008088E8B07ED080987CD0929AFB0EDB50B7
:10178000E8B0808AE8B075D0809A73D09390FB0E51
:10179000DB50E8B08180E8B06CD081906AD0939241
:1017A000FB0EDB50E8B08182E8B063D0819261D05B
:1017B0009394FB0EDB50E8B08184E8B05AD081945A
:1017C00058D09396FB0EDB50E8B08186E8B051D03C
:1017D00081964FD09398FB0EDB50E8B08188E8B03B
:1017E00048D0819846D0939AFB0EDB50E8B0818AAE
:1017F000E8B03FD0819A3DD0939CFB0EDB50E8B01F
:10180000818CE8B036D0819C34D0939EFB0EDB50A7
:10181000E8B0818EE8B02DD0819E2BD09490FB0E45
:10182000DB50E8B08280E8B024D0829022D094923D
:10183000FB0EDB50E8B08282E8B01BD0829219D058
:101840009494FB0EDB50E8B08284E8B012D082940E
:1018500010D0949CFB0EDB50E8B0828CE8B009D02D
:10186000829C07D0949EFB0EDB50E8B0828EE8A0ED
:10187000829EE552E7CFD9FF1200D9CFE6FFE1CF34
:10188000D9FF020EE126DE6ADD6ADECF14F0DDCF7D
:1018900015F00C0E086E096AFD0EDBCF0DF0FE0E82
:1018A000DBCF0EF06AEC19F006C016F007C017F097
:1018B0001650145C1750155806E20000DF2A010E7E
:1018C00001E3DB2AE2D7020EE15C02E2E16AE552C3
:1018D000E16EE552E7CFD9FF1200D9CFE6FFE1CFA5
:1018E000D9FF020EE126FC0E0001AA25010FA96E08
:1018F000AA51A9240B0BA66EA850FEE1DE6ADD6A90
:10190000DECF14F0DDCF15F00C0E086E096AFD0E67
:10191000DBCF0DF0FE0EDBCF0EF06AEC19F006C047
:1019200016F007C017F00650145C075015580AE26D
:10193000010EE66EC7EC1AF0E552DF2A010EE0E375
:10194000DB2ADED7020EE15C02E2E16AE552E16EDB
:10195000E552E7CFD9FF1200D9CFE6FFE1CFD9FF9B
:10196000FE0EDB500001AA25C16E070EAA25C06E2F
:10197000E552E7CFD9FF1200D9CFE6FFE1CFD9FF7B
:10198000FE0EDB500C0A24E0070A20E0010A1CE0EE
:10199000030A18E0010A14E00C0A10E0070A0CE040
:1019A000010A08E0030A04E0010A14E1010E11D063
:1019B000050E0FD0090E0DD00D0E0BD0110E09D053
:1019C000210E07D0250E05D0290E03D02D0E01D0F3
:1019D000310EC26E0A0EE66EE66A7FDFE552E55210
:1019E000C09EC282C2B2FED7C450156AF36E15C043
:1019F000F4FFE552E7CFD9FF1200D9CFE6FFE1CFE0
:101A0000D9FFFE0EDB500C0A24E0070A20E0010A91
:101A10001CE0030A18E0010A14E00C0A10E0070AAF
:101A20000CE0010A08E0030A04E0010A14E1010ED7
:101A300011D0050E0FD0090E0DD00D0E0BD0110ECA
:101A400009D0210E07D0250E05D0290E03D02D0E6A
:101A500001D0310EC26E0A0EE66EE66A3EDFE55236
:101A6000E552C08EC282C2B2FED7C3CFF3FFC4CF4D
:101A7000F4FFE552E7CFD9FF1200D9CFE6FFE1CF5F
:101A8000D9FFFE0EDB50030A67E0020A42E0010ABA
:101A900001E084D0FC0EDBCF08F0FD0EDBCF09F0B7
:101AA000020E081801E1095031E0040E081801E1A6
:101AB00009502AE0080E081801E1095023E0100E31
:101AC000081801E109501CE0200E081801E1095036
:101AD00015E0400E081801E109500EE0800E0818CC
:101AE00001E1095007E0085059E1010E091856E1DB
:101AF000870E0DD0860E0BD0850E09D0840E07D030
:101B0000830E05D0820E03D0810E01D0800ED56EDB
:101B100045D0FC0EDBCF08F0FD0EDBCF09F0010E47
:101B2000081801E1095015E0020E081801E10950FA
:101B30000EE0040E081801E1095007E0080E08182D
:101B40002DE109502BE1B10E05D0A10E03D0910E6D
:101B500001D0810ECD6E22D0FC0EDBCF08F0FD0E41
:101B6000DBCF09F0010E081801E1095015E0020E63
:101B7000081801E109500EE0040E081801E10950AF
:101B800007E0080E08180AE1095008E1B10E05D077
:101B9000A10E03D0910E01D0810EB16EE552E7CFB8
:101BA000D9FF1200D9CFE6FFE1CFD9FF060EE1261B
:101BB000176A186A010E196EFC0EDBCF1AF0FD0EC3
:101BC000DBCF1BF01C6A1A50175C146E1B501858A0
:101BD000156E1C501958166E14C0DEFF15C0DDFFBF
:101BE000146A010E156E14C00DF00E6EDECF08F0F3
:101BF000DDCF09F0B1EC1AF0020E08C0DBFF030ED6
:101C000009C0DBFFDECF14F0DDCF15F0156A040E3E
:101C100014C0DBFF050E15C0DBFFFE0EDB50030A10
:101C200012E0020A09E0010A14E1020EDB50D76E4D
:101C3000040EDB50D66E0DD0020EDB50CF6E040EBC
:101C4000DB50CE6E06D0020EDB50B36E040EDB50BE
:101C5000B26E060EE15C02E2E16AE552E16EE55227
:101C6000E7CFD9FF1200D9CFE6FFE1CFD9FF020EAF
:101C7000E126D66AC10ED56EDE6ADD6ADECF14F0CB
:101C8000DDCF15F00C0E086E096AFD0EDBCF0DF0EE
:101C9000FE0EDBCF0EF06AEC19F006C016F007C09E
:101CA00017F00650145C075015580BE2060ED624A8
:101CB000D66EF294F2A4FED7DF2A010EDFE3DB2A10
:101CC000DDD7020EE15C02E2E16AE552E16EE55227
:101CD000E7CFD9FF1200D9CFE6FFE1CFD9FFA69E0B
:101CE000A69CA684FE0EDB50A96EFD0EDB50A86EEE
:101CF000550EA76EAA0EA76EA682A6B2FED7E55213
:101D0000E7CFD9FF1200D9CFE6FFE1CFD9FFFE0E12
:101D1000DB50A96EA694A69EA69CA680A850E5526C
:101D2000E7CFD9FF1200FD0EA96E0B0EA914A66E07
:101D3000A850FEE17E0E166E0E6EA9CF09F0F5ECEE
:101D40001AF00538F00B146E156AA8C008F0A9C087
:101D500009F00D6E15C00EF0B1EC1AF008C0ABF032
:101D600008C0E6FFD0DFE5520001AA6F1200D9CF0C
:101D7000E6FFE1CFD9FF040EE126948E949C240E59
:101D8000AC6E900EAB6E080EB86EAAC018F0196A51
:101D90001A6A1B6A1C6A1B0E1D6EB70E1E6E1F6A26
:101DA0001CC006F01DC007F0086E1FC009F0FB0E36
:101DB000DBCF0BF0FC0EDBCF0CF0FD0EDBCF0DF01C
:101DC000FE0EDBCF0EF06EEC1AF018500624146EE7
:101DD00019500720156E1A500820166E1B50092046
:101DE000176E1406000E155A165A175A14C0DFFF44
:101DF000010E15C0DBFF020E16C0DBFF030E17C07D
:101E0000DBFFD9CFE9FFDACFEAFFEECF14F0EECF58
:101E100015F0EECF16F0EFCF17F0080ED89017326E
:101E2000163215321432E806F9E11450B06E000E85
:101E3000DB50AF6E040EE15C02E2E16AE552E16E56
:101E4000E552E7CFD9FF1200D9CFE6FFE1CFD9FFA6
:101E5000ACA2FED7FE0EDB500001AA25AD6EE55206
:101E6000E7CFD9FF1200D9CFE6FFE1CFD9FFACA26F
:101E7000FED7FE0EDB500001AA25AD6EE552E7CF7E
:101E8000D9FF1200D9CFE6FFE1CFD9FFACA2FED730
:101E9000B850080B01E0010E146EFE0EDB5014C0AA
:101EA000E7FFE75204E0E8427F0BE706FCE10001B0
:101EB000AA25AD6EE552E7CFD9FF1200D9CFE6FFD4
:101EC000E1CFD9FFE65260C0F6FF61C0F7FF08001E
:101ED000F55010E0000160C0F6FF61C0F7FF602B15
:101EE000000E61230800F550DF6EDFCFE6FFBBDF99
:101EF000E552E9D7E552E552E7CFD9FF1200D9CF35
:101F0000E6FFE1CFD9FFE65262C0F6FF63C0F7FFFC
:101F10000800F55010E0000162C0F6FF63C0F7FF53
:101F2000622B000E63230800F550DF6EDFCFE6FF63
:101F3000A9DFE552E9D7E552E552E7CFD9FF120014
:101F4000D9CFE6FFE1CFD9FF0001AC6BAC51E76E12
:101F5000FD0EDBCFE9FFFE0EDBCFEAFFE750E926FF
:101F6000000EEA22EF5013E0AC51E76EFD0EDBCF1E
:101F7000E9FFFE0EDBCFEAFFE750E926000EEA227A
:101F8000EF50E66E70DFE5520001AC2BDFD7E55273
:101F9000E7CFD9FF1200D9CFE6FFE1CFD9FF00018B
:101FA000AC6BAC51E76EFD0EDBCFE9FFFE0EDBCF75
:101FB000EAFFE750E926000EEA22EF5013E0AC51A9
:101FC000E76EFD0EDBCFE9FFFE0EDBCFEAFFE75049
:101FD000E926000EEA22EF50E66E54DFE5520001DA
:101FE000AC2BDFD7E552E7CFD9FF1200D9CFE6FF00
:101FF000E1CFD9FFE150FD0FE96EFF0EDA20EA6E66
:102000000F0ED880EE54270EED542AE2FD0EDBCFE2
:1020100016F0FE0EDBCF17F0100E0D6E270E0E6EB3
:1020200016C008F017C009F0B1EC1AF008C016F09D
:1020300009C017F00A0E0D6E0E6AB1EC1AF004C05A
:1020400016F005C017F00001AA5100010424146E17
:10205000000E0520156E300E1424E66E04DFE552E6
:10206000D950FD0FE96EFF0EDA20EA6EE70ED88038
:10207000EE54030EED5422E2FD0EDBCF14F0FE0E03
:10208000DBCF15F0E80E0D6E030E0E6E14C008F0D7
:1020900015C009F0B1EC1AF008C014F009C015F031
:1020A0000A0E0D6E0E6AB1EC1AF004C014F005C0F1
:1020B00015F0300E0424E66ED6DEE552D950FD0F41
:1020C000E96EFF0EDA20EA6E630ED880EE54000E41
:1020D000ED5429E2FD0EDBCF16F0FE0EDBCF17F03C
:1020E000640E0D6E0E6A16C008F017C009F0B1EC50
:1020F0001AF008C016F009C017F00A0E0D6E0E6A2D
:10210000B1EC1AF004C016F005C017F00001AA5196
:1021100000010424146E000E0520156E300E1424E8
:10212000E66EA1DEE552D950FD0FE96EFF0EDA2012
:10213000EA6E090ED880EE54000EED5429E2FD0E31
:10214000DBCF16F0FE0EDBCF17F00A0E0D6E0E6A17
:1021500016C008F017C009F0B1EC1AF008C016F06C
:1021600009C017F00A0E0D6E0E6AB1EC1AF004C029
:1021700016F005C017F00001AA5100010424146EE6
:10218000000E0520156E300E1424E66E6CDEE5524E
:10219000FD0EDBCF16F0FE0EDBCF17F00A0E0D6E34
:1021A0000E6A16C008F017C009F0B1EC1AF004C0AE
:1021B00016F005C017F00001AA5100010424146EA6
:1021C000000E0520156E300E1424E66E4CDEE5522E
:1021D000E552E7CFD9FF1200D9CFE6FFE1CFD9FF13
:1021E000020EE1260C0E0001AA25BD12070EAA253B
:1021F000CA6EFD0EA96EA680A850FEE1FD0E00017C
:10220000AA25E8249416AAC018F0196A1A6A1B6A4B
:10221000100E086E096AFD0EDBCF0DF0FE0EDBCF4F
:102220000EF03DEC19F006C020F007C021F0226A44
:10223000236A21AE02D0226823681C6A1B0E1D6E21
:10224000B70E1E6E1F6A1CC006F01DC007F0086E98
:102250001FC009F020C00BF021C00CF022C00DF00F
:1022600023C00EF009EC19F018500624146E195012
:102270000720156E1A5008201B5009201406000E66
:10228000155A1450CB6ECB28166E176A086E17C0FD
:1022900009F0FB0EDBCF0DF0FC0EDBCF0EF03DECBA
:1022A00019F006C014F007C015F0190E0D6E0E6A75
:1022B00006C008F007C009F0E3EC18F008C0DEFF24
:1022C00009C0DDFF0001AA51166E176ADE50162400
:1022D000146EDD501720156ED89015321432D89038
:1022E000153214321450BE6EDECF16F0DDCF17F06B
:1022F000030E1616000E1716AA5100011624146EAE
:10230000000E1720040ED8901436E804FCE1145097
:10231000BD12020EE15C02E2E16AE552E16EE552B5
:10232000E7CFD9FF1200D9CFE6FFE1CFD9FF020EE8
:10233000E1260C0E0001AA25BA12070EAA25CA6EC4
:10234000FD0EA96EA680A850FEE1FE0E0001AA2592
:10235000E8249416AAC018F0196A1A6A1B6A100EAB
:10236000086E096AFD0EDBCF0DF0FE0EDBCF0EF01E
:102370003DEC19F006C020F007C021F0226A236A64
:1023800021AE02D0226823681C6A1B0E1D6EB70E98
:102390001E6E1F6A1CC006F01DC007F0086E1FC02D
:1023A00009F020C00BF021C00CF022C00DF023C0BA
:1023B0000EF009EC19F018500624146E195007207D
:1023C000156E1A5008201B5009201406000E155ACD
:1023D0001450CB6ECB28166E176A086E17C009F022
:1023E000FB0EDBCF0DF0FC0EDBCF0EF03DEC19F059
:1023F00006C014F007C015F0190E0D6E0E6A06C067
:1024000008F007C009F0E3EC18F008C0DEFF09C0CF
:10241000DDFF0001AA51166E176ADE501624146EF5
:10242000DD501720156ED89015321432D890153221
:1024300014321450BB6EDECF14F0DDCF15F0030E56
:102440001416000E1516040ED8901436E804FCE19C
:102450001450BA12020EE15C02E2E16AE552E16E4A
:10246000E552E7CFD9FF12000F0EE66E7C0EE66E46
:1024700042EC0AF0E552E552F40EE66E010EE66E0D
:102480006DEC0CF0E552E5520001D60E626F340E91
:10249000636F35DD0F0EE66E7C0EE66E42EC0AF0E1
:1024A000E552E552E80EE66E030EE66E6DEC0CF0BA
:1024B000E552E55212000F0EE66E7C0EE66E42EC1F
:1024C0000AF0E552E552E80EE66E030EE66E6DEC9C
:1024D0000CF0E552E5520001CB0E626F340E636FD3
:1024E0000EDD0F0EE66E7C0EE66E42EC0AF0E55253
:1024F000E552D00EE66E070EE66E6DEC0CF0E5527E
:10250000E55212000A0EE66E7C0EE66E8EEC08F0C6
:10251000E552E552020EB06E700EAF6EA5DF0001FF
:10252000B151B21105E1010EB06E370EAF6E9CDFF6
:102530000001B151B21105E1040EB06EE10EAF6EB3
:1025400093DF12000A0EE66E7C0EE66E68EC09F070
:10255000E552E552B0DFAC0EF66E340EF76E0800B1
:10256000F550720804E1040EB06EE10EAF6EAC0ED1
:10257000F66E340EF76E0800F550620804E1020EA4
:10258000B06E700EAF6EAC0EF66E340EF76E0800C5
:10259000F550660804E1010EB06E370EAF6E120002
:1025A000B1DF0001B16BB26B0001A40E626F340E9B
:1025B000636FA5DC0F0EE66E7C0EE66E42EC0AF051
:1025C000E552E552E80EE66E030EE66E6DEC0CF099
:1025D000E552E5520001B80E626F340E636F8FDC76
:1025E0000F0EE66E7C0EE66E42EC0AF0E552E55206
:1025F000E80EE66E030EE66E6DEC0CF0E552E55269
:10260000A2EF12F0210EE66E83EC0EF0E552000808
:1026100001E3FCD1220EE66E83EC0EF0E5520008D9
:1026200001E3F4D1230EE66E83EC0EF0E5520008D0
:1026300001E3ECD1040EB06EE10EAF6E0A0EE66E51
:10264000E66A6DEC0CF0E552E55200016F0E626F28
:10265000340E636F54DCC80EE66EE66A6DEC0CF067
:10266000E552E5520001010EB11901E085D0B251E9
:1026700001E082D0E66A230EE66E6BEC0EF0E552C6
:10268000E5520F0EE66E7C0EE66E42EC0AF0E55265
:10269000E55200017B0E626F340E636F30DC640E16
:1026A000E66EE66A6DEC0CF0E552E5520F0EE66E52
:1026B0007C0EE66E42EC0AF0E552E552640EE66EE0
:1026C000E66A6DEC0CF0E552E5520F0EE66E7C0EFC
:1026D000E66E42EC0AF0E552E5520001930E626F9D
:1026E000340E636F0CDC640EE66EE66A6DEC0CF083
:1026F000E552E5520F0EE66E7C0EE66E42EC0AF0F5
:10270000E552E552640EE66EE66A6DEC0CF0E552B9
:10271000E5520F0EE66E7C0EE66E42EC0AF0E552D4
:10272000E5520001720E626F340E636F7FEC0FF0A2
:10273000640EE66EE66A6DEC0CF0E552E5520F0EA3
:10274000E66E7C0EE66E42EC0AF0E552E552640E4F
:10275000E66EE66A6DEC0CF0E552E5520F0EE66EA1
:102760007C0EE66E42EC0AF0E552E552010E0001E5
:10277000B36FB46BB16BB26B090EB06EC30EAF6EBC
:102780000A0EE66EE66A6DEC0CF0E552E5520001C9
:102790006F0E626F340E636F7FEC0FF0C80EE66E43
:1027A000E66A6DEC0CF0E552E5520001010EB1193C
:1027B00001E087D0B25101E084D0E66A230EE66ED4
:1027C0006BEC0EF0E552E5520F0EE66E7C0EE66EF7
:1027D00042EC0AF0E552E55200017B0E626F340EC6
:1027E000636F7FEC0FF0640EE66EE66A6DEC0CF042
:1027F000E552E5520F0EE66E7C0EE66E42EC0AF0F4
:10280000E552E552640EE66EE66A6DEC0CF0E552B8
:10281000E5520F0EE66E7C0EE66E42EC0AF0E552D3
:10282000E5520001930E626F340E636F7FEC0FF080
:10283000640EE66EE66A6DEC0CF0E552E5520F0EA2
:10284000E66E7C0EE66E42EC0AF0E552E552640E4E
:10285000E66EE66A6DEC0CF0E552E5520F0EE66EA0
:102860007C0EE66E42EC0AF0E552E5520001720E73
:10287000626F340E636F7FEC0FF0640EE66EE66AF3
:102880006DEC0CF0E552E5520F0EE66E7C0EE66E36
:1028900042EC0AF0E552E552640EE66EE66A6DEC33
:1028A0000CF0E552E5520F0EE66E7C0EE66E42EC41
:1028B0000AF0E552E552010E0001B36FB46BB16B43
:1028C000B26B020EB06E700EAF6E0A0EE66EE66A66
:1028D0006DEC0CF0E552E55200016F0E626F340EA4
:1028E000636F7FEC0FF0C80EE66EE66A6DEC0CF0DD
:1028F000E552E5520001010EB11901E087D0B25155
:1029000001E084D0E66A230EE66E6BEC0EF0E55231
:10291000E5520F0EE66E7C0EE66E42EC0AF0E552D2
:10292000E55200017B0E626F340E636F7FEC0FF097
:10293000640EE66EE66A6DEC0CF0E552E5520F0EA1
:10294000E66E7C0EE66E42EC0AF0E552E552640E4D
:10295000E66EE66A6DEC0CF0E552E5520F0EE66E9F
:102960007C0EE66E42EC0AF0E552E5520001930E51
:10297000626F340E636F7FEC0FF0640EE66EE66AF2
:102980006DEC0CF0E552E5520F0EE66E7C0EE66E35
:1029900042EC0AF0E552E552640EE66EE66A6DEC32
:1029A0000CF0E552E5520F0EE66E7C0EE66E42EC40
:1029B0000AF0E552E5520001720E626F340E636F49
:1029C0007FEC0FF0640EE66EE66A6DEC0CF0E552FB
:1029D000E5520F0EE66E7C0EE66E42EC0AF0E55212
:1029E000E552640EE66EE66A6DEC0CF0E552E552D7
:1029F0000F0EE66E7C0EE66E42EC0AF0E552E552F2
:102A0000010E0001B36FB46BB16BB26B230EE66EB7
:102A100083EC0EF0E55200092BE1820EF66E340EC7
:102A2000F76E0800F550600804E1040EB06EE10E88
:102A3000AF6E820EF66E340EF76E0800F550620827
:102A400004E1020EB06E700EAF6E820EF66E340EA2
:102A5000F76E0800F5506A0804E1090EB06EC30E67
:102A6000AF6E640EE66EE66A6DEC0CF0E552E55270
:102A7000210EE66E83EC0EF0E552000801E3ECD087
:102A8000220EE66E83EC0EF0E552000801E3E4D07E
:102A9000230EE66E83EC0EF0E552000801E3DCD075
:102AA000020EB06E700EAF6E0A0EE66EE66A6DEC48
:102AB0000CF0E552E5520001660E626F340E636F52
:102AC0007FEC0FF0F40EE66E010EE66E6DEC0CF08E
:102AD000E552E5521A0EE66E42EC0FF0E552F40EA6
:102AE000E66E010EE66E6DEC0CF0E552E55200016B
:102AF000B151B21127E1040EB06EE10EAF6E0A0EB5
:102B0000E66EE66A6DEC0CF0E552E5520001660EE9
:102B1000626F340E636F7FEC0FF0F40EE66E010E01
:102B2000E66E6DEC0CF0E552E5521A0EE66E42ECE4
:102B30000FF0E552F40EE66E010EE66E6DEC0CF051
:102B4000E552E5520001B151B21127E1010EB06E1C
:102B5000370EAF6E0A0EE66EE66A6DEC0CF0E552CB
:102B6000E5520001660E626F340E636F7FEC0FF06A
:102B7000F40EE66E010EE66E6DEC0CF0E552E552D9
:102B80001A0EE66E42EC0FF0E552F40EE66E010E00
:102B9000E66E6DEC0CF0E552E5526D0EF66E340EFD
:102BA000F76E0800F550680804E1040EB06EE10EFF
:102BB000AF6E6D0EF66E340EF76E0800F5506A08B3
:102BC00004E1020EB06E700EAF6E6D0EF66E340E36
:102BD000F76E0800F5506C0804E1010EB06E370E78
:102BE000AF6EF40EE66E010EE66E6DEC0CF0E55283
:102BF000E5520001840E626F340E636F7FEC0FF0BC
:102C0000F40EE66E010EE66E6DEC0CF0E552E55248
:102C10001A0EE66E42EC0FF0E552F40EE66E010E6F
:102C2000E66E6DEC0CF0E552E5520001010EB119B3
:102C300013E1B25111E1E66A210EE66E6BEC0EF083
:102C4000E552E5520001B16BB26B0A0EE66EE66A20
:102C50006DEC0CF0E552E552210EE66E83EC0EF0C1
:102C6000E552000924E16D0EF66E340EF76E080091
:102C7000F550680804E1040EB06EE10EAF6E6D0E03
:102C8000F66E340EF76E0800F5506A0804E1020E85
:102C9000B06E700EAF6E6D0EF66E340EF76E0800ED
:102CA000F5506C0804E1010EB06E370EAF6E210EC8
:102CB000E66E83EC0EF0E55200082AE2220EE66E84
:102CC00083EC0EF0E552000823E2230EE66E83EC5F
:102CD0000EF0E55200081CE20001B16BB26B60DC43
:102CE000F19E0001010EB11913E1B25111E1E66A42
:102CF000220EE66E6BEC0EF0E552E5520001B16B70
:102D0000B26B0A0EE66EE66A6DEC0CF0E552E55227
:102D1000220EE66E83EC0EF0E552000924E1AC0EC3
:102D2000F66E340EF76E0800F550720804E1040EDA
:102D3000B06EE10EAF6EAC0EF66E340EF76E08009C
:102D4000F550620804E1020EB06E700EAF6EAC0E6C
:102D5000F66E340EF76E0800F550660804E1010EB9
:102D6000B06E370EAF6E1200D9CFE6FFE1CFD9FFBC
:102D7000020EE126010EDB6ADBCF14F0020EE76ED5
:102D80001418E8AE02D0E73402D0E750145C1AE21F
:102D9000010EDB5003E1FE0EDB3802D0FE0EDB50ED
:102DA0000F0BDF6E0A0EDF5C02E2300E01D0370E31
:102DB000DF24DF6EDFCFE6FF24EC0FF0E552010EDB
:102DC000DB2ADAD7020EE15C02E2E16AE552E16E4B
:102DD000E552E7CFD9FF1200DACFE4FFE2CFDAFF06
:102DE000E9CFE4FFEACFE4FFF6CFE4FFF7CFE4FF5B
:102DF000F5CFE4FFF3CFE4FFF4CFE4FFFACFE4FF35
:102E000000EE00F0140EE80403E3EECFE4FFFBD77E
:102E100000EE14F0100EE80403E3EECFE4FFFBD75E
:102E2000E652F2A45BD0F2940001C12B000EC22343
:102E3000FF0ED880C155000EC25502E2C16BC26BB5
:102E400000016551246E256A00012450C15D2550A2
:102E5000C25907E3120EE66E7C0EE66E8EEC08F0A9
:102E600006D0120EE66E7C0EE66E68EC09F0E552B6
:102E7000E55200016651246E256A00012450C15DAF
:102E80002550C25907E3100EE66E7C0EE66E8EECFE
:102E900008F006D0100EE66E7C0EE66E68EC09F0C7
:102EA000E552E55200016751246E256A0001245065
:102EB000C15D2550C25907E3110EE66E7C0EE66E29
:102EC0008EEC08F006D0110EE66E7C0EE66E68EC15
:102ED00009F0E552E552100ED624D66E9EAAA4D073
:102EE000F29A9E9A92EC1AF0E66E0001BD51EA6ADF
:102EF0008A0FE96E000EEA22E552E750EF6EBD51EF
:102F0000EA6A8A0FE96E000EEA22EF504F0804E1E8
:102F1000010EB16FB26BBD6BBE510D080AE2410EDE
:102F200000018A5D06E1BDC0BEF0010E0001C96F5F
:102F3000CA6B0001BD51EA6A8A0FE96E000EEA22EF
:102F4000EF50520804E1BD6B0001520E8A6F030E70
:102F50000001BD5D18E3520E00018A5D14E18BC0D3
:102F600065F08CC066F08DC067F00001BD6B00019C
:102F7000200E8A6F0F0EE66E7C0EE66E42EC0AF0B3
:102F8000E552E552F28A0001BD2BBDC0BEF01D0E18
:102F9000BD5D01E3BD6B00018A51540A36E0040AAD
:102FA00029E0140A1CE0080A07E0030A3DE10001D9
:102FB000010EAD6FAE6BBE6B0001C96BCA6BBD6B12
:102FC000010EAF6FB06B0F0EE66E7C0EE66E8EECF0
:102FD00008F0E552E552010E0001BF6F24D0000158
:102FE000C96BCA6BBD6B0F0EE66E7C0EE66E68ECAD
:102FF00009F015D00001C96BCA6BBD6B0F0EE66EF0
:103000007C0EE66E8EEC08F00AD00001C96BCA6B2C
:10301000BD6B0F0EE66E7C0EE66E42EC0AF0E552DA
:10302000E5520001BF6BC06BE55200EE23F0100EBD
:10303000E80403E3E5CFEDFFFBD700EE13F0140E39
:10304000E80403E3E5CFEDFFFBD7E5CFFAFFE5CFDB
:10305000F4FFE5CFF3FFE5CFF5FFE5CFF7FFE5CFD1
:10306000F6FFE5CFEAFFE5CFE9FFE5CFDAFF110094
:1030700093EC0EF0200EE66E9D0EE66E1CEC08F052
:10308000E552E552800EE66E250EE66EE66AE66AC9
:10309000B7EC0EF0E552E552E552E55202EC13F0C2
:1030A000C10ED56E100ED66ED08EF28EF28A84A628
:1030B000FF000001BF51C01174E00F0EE66E7C0EE0
:1030C000E66E42EC0AF0E552E552F40EE66E010EB1
:1030D000E66E6DEC0CF0E552E5520001590E606FA2
:1030E000330E616F5EEC0FF0270EE66EE66AF6ECCB
:1030F0000FF0E552E5520001460E606F330E616F2E
:103100005EEC0FF0570EE66EE66AF6EC0FF0E55255
:10311000E5520001330E606F330E616F5EEC0FF00D
:10312000290EE66EE66AF6EC0FF0E552E552000174
:10313000200E606F330E616F5EEC0FF0C5C0E6FFCE
:10314000C6C0E6FFF6EC0FF0E552E5520001100EA6
:10315000606F330E616F5EEC0FF00001C16BC26BEC
:103160000001050EC15D000EC2591BE20001BF51F6
:10317000C01112E00001BD6BE80EE66E030EE66EB4
:103180006DEC0CF0E552E5520F0EE66E7C0EE66E2D
:1031900042EC0AF0E552E5520001C12B000EC223B9
:1031A000DFD70001C52B000EC623C723C8230001AB
:1031B000BD6BF40EE66E010EE66E6DEC0CF0E552A2
:0631C000E55275D7120074
:0A31C600006A0EAEECEF18F00D6C7D
:1031D0000E1EE86A0E22001E09AEF4EF18F0086C0D
:1031E000091EE86A0922001EB1EC1AF009BE04EFBC
:1031F00019F000AE000C086C091EE86A0922046C84
:10320000051EE86A0522000C00BEFBEF18F00188DD
:10321000FF0C006AE86A0EAE16EF19F00B6C0C1E7C
:103220000D1E0E1E0C220D220E22001E09AE21EFD5
:1032300019F0066C071E081E091E07220822092223
:10324000001E6EEC1AF009BE38EF19F000AE000C4B
:10325000066C071E081E091EE86A072208220922BA
:10326000026C031E041E051E032204220522000C0C
:1032700000BE28EF19F00188FF0C09C013F008C048
:1032800012F008500D02F4CF07F0F3CF06F009500A
:103290000E02F4CF09F0F3CF08F00D02F350072629
:1032A000F4500822E86A092212500E02F350072651
:1032B000F4500822E86A09220EAE63EF19F01250AA
:1032C000085E1350095A13AE000C0D50085E0E50E4
:1032D000095A000C08C012F008500D02F4CF07F094
:1032E000F3CF06F009500E02F4CF09F0F3CF08F047
:1032F0000D02F3500726F4500822E86A0922125002
:103300000E02F3500726F4500822E86A0922000C46
:10331000267375626D69743D5375626D69742A0018
:1033200026656E7472792E3135383932383433333C
:10333000333D0026656E7472792E3136303939305E
:10334000343935373D0026656E7472792E31343646
:10335000383236363733333D0068747470733A2F21
:103360002F646F63732E676F6F676C652E636F6D6D
:103370002F666F726D732F642F31505A4F716A6EC2
:1033800069744552306D303349783472396744423C
:10339000716870375873315972506D6A4C796D4548
:1033A00032565741552F666F726D526573706F6E4E
:1033B00073653F69667126656E7472792E3936328F
:0833C0003032333038393D0092
:0833C8002A0EF66E100EF76EDE
:1033D000000EF86E00010900F550D76F0900F55096
:1033E000D86F03E1D76701D03DD00900F550D26F07
:1033F0000900F550D36F0900F550D46F090009009A
:10340000F550E96E0900F550EA6E0900090009005F
:10341000F550D56F0900F550D66F09000900F6CFB9
:10342000D9F0F7CFDAF0F8CFDBF0D2C0F6FFD3C097
:10343000F7FFD4C0F8FF0001D55302E1D65307E0EF
:103440000900F550EE6ED507F8E2D607F9D7D9C0D6
:10345000F6FFDAC0F7FFDBC0F8FF0001D707000E68
:06346000D85BBFD712008B
:0A34660082A8568482AA886A0082B8
:10347000A80082A856A48AA68AA80082A856848298
:10348000AA886A0082A8569C829A8AA6C2DCAAA64A
:1034900084620082A8569C829A8A909ABEA6C2DC58
:1034A000AAA6840082A856AA82A4A87A627264603E
:1034B00060586058601A140082A8569C829A8A7AD2
:1034C000A6C2DCAAA684626A1A140082A856A48A3C
:0B34D000A68AA81A140082A81A140093
:0434DC00056A046A0F
:1034E000036A026A200EE76ED89006360736083661
:1034F000093602360336043605360B50025C0C5092
:1035000003580D5004580E50055809E30B50025E45
:103510000C50035A0D50045A0E50055A062AE72E35
:04352000E4D71200DA
:0C352400D9CFE6FFDACFE6FFE1CFD9FFF8
:10353000E2CFDAFFE652F20E0001DC17ABAC03D0AB
:10354000DC91ABB0DC81ABB4DC85ABB2DC87AE50D8
:10355000DF6EDF50E552E552E5CFDAFFE7CFD9FF66
:02356000120057
:0E356200056A046A100EE76ED8900836093626
:10357000043605360D50045C0E50055805E30D5019
:0E358000045E0E50055A082AE72EF0D71200FE
:02358E00FF0E2E
:10359000E350266E480E01D04C0EE76EE72EFED7A4
:0E35A000E76AE72EFED7262EF7D700001200AE
:0235AE00000E0D
:1035B000F36E00EE00F0080E01D81200EA6002D0AF
:0E35C000EE6AFCD7F350E9601200EE6AFCD709
:0235CE0013EEFA
:1035D00000F023EE00F0F86A019CE4EC19F003EC33
:0A35E0001BF038EC18F0FBD71200C6
:0635EA00056A080EE76E01
:1035F000D890093605360E50055C02E3056E092A9F
:06360000E72EF7D71200CF
:023606001200B0
:08360800DF0F0FDF00000000DE
:1036100000000000002020202020200000000000EA
:10362000000000000000000000000000000000009A
:02363000000098
:00000001FF
