:020000040000FA
:06000000ACEF13F012004A
:06100000ACEF13F012003A
:0610080034EF12F01200AB
:021018001200C4
:06102A0001009227000006
:081030006A0000000500000049
:08103800D9CFE6FFE1CFD9FF9B
:10104000D08EF28EFD0EDBCF08F0FE0EDBCF09F066
:10105000200E081802E19D0E091847E0400E0818FE
:1010600002E19D0E09183FE0100E081802E1F00E93
:10107000091836E0080E081802E1F00E09182DE0F4
:10108000100E081802E1F20E091824E0020E0818EA
:1010900002E1A00E09181BE0020E081802E19D0EE5
:1010A000091812E0010E081802E19D0E091809E066
:1010B000200E08181CE1F20E091819E1F28AD58EEB
:1010C00016D09D80CD8013D09D82CA8410D0A0827E
:1010D000B1800DD0F288F19C0AD0F086F19A07D049
:1010E000F088F19804D09D8C02D09D8A9F8AE552A9
:1010F000E7CFD9FF12006CC092FF12006CC093FFC3
:1011000012006CC094FF12009268120093681200E3
:1011100094681200D180120004001200D9CFE6FFBB
:10112000E1CFD9FFFD0EDBCF08F0FE0EDBCF09F0DB
:10113000820E081802E10F0E091801E1C3D0170E44
:10114000081802E17C0E091801E1B9D0160E081842
:1011500002E17C0E091801E1AFD0120E081802E17D
:101160007C0E091801E1A5D0110E081802E17C0ED1
:10117000091801E19BD0100E081802E17C0E091835
:1011800001E191D0810E081802E10F0E091801E16A
:1011900087D00F0E081802E17C0E091801E17DD0FE
:1011A0000E0E081802E17C0E091874E00D0E0818E6
:1011B00002E17C0E09186BE00C0E081802E17C0EAF
:1011C000091862E00B0E081802E17C0E091859E0BC
:1011D0000A0E081802E17C0E091850E0090E0818E2
:1011E00002E17C0E091847E0080E081802E17C0EA7
:1011F00009183EE0800E081802E10F0E091835E0CC
:10120000050E081802E17C0E09182CE0040E0818DF
:1012100002E17C0E091823E0030E081802E17C0E9F
:1012200009181AE0020E081802E17C0E091811E0F4
:10123000010E081802E17C0E091808E0085044E18C
:101240007C0E091841E1929080803ED0929280827B
:101250003BD09294808438D09296808635D09298F4
:10126000808832D0929A808A2FD0926A89682CD056
:101270009390818029D09392818226D09394818407
:1012800023D09396818620D0939881881DD0939AFD
:10129000818A1AD0939C818C17D0939E818E14D012
:1012A000936A8A6811D0949082800ED09492828240
:1012B0000BD09494828408D0949C828C05D0949E08
:1012C000828E02D0946A8B68E552E7CFD9FF120074
:1012D000D9CFE6FFE1CFD9FFFD0EDBCF08F0FE0E40
:1012E000DBCF09F0820E081802E10F0E091801E1A8
:1012F000C3D0170E081802E17C0E091801E1B9D01D
:10130000160E081802E17C0E091801E1AFD0120E8A
:10131000081802E17C0E091801E1A5D0110E081889
:1013200002E17C0E091801E19BD0100E081802E1C1
:101330007C0E091801E191D0810E081802E10F0E10
:10134000091801E187D00F0E081802E17C0E091878
:1013500001E17DD00E0E081802E17C0E091874E040
:101360000D0E081802E17C0E09186BE00C0E08182F
:1013700002E17C0E091862E00B0E081802E17C0EF7
:10138000091859E00A0E081802E17C0E091850E00D
:10139000090E081802E17C0E091847E0080E08182B
:1013A00002E17C0E09183EE0800E081802E10F0EE3
:1013B000091835E0050E081802E17C0E09182CE02A
:1013C000040E081802E17C0E091823E0030E081829
:1013D00002E17C0E09181AE0020E081802E17C0EE8
:1013E000091811E0010E081802E17C0E091808E046
:1013F000085044E17C0E091841E1929080903ED063
:10140000929280923BD09294809438D0929680961B
:1014100035D09298809832D0929A809A2FD0926A42
:10142000896A2CD09390819029D09392819226D072
:101430009394819423D09396819620D09398819809
:101440001DD0939A819A1AD0939C819C17D0939E19
:10145000819E14D0936A8A6A11D0949082900ED0A3
:10146000949282920BD09494829408D0949C829C03
:1014700005D0949E829E02D0946A8B6AE552E7CF93
:10148000D9FF1200D9CFE6FFE1CFD9FFFD0EDBCFA8
:1014900008F0FE0EDBCF09F01F0E081802E17C0EEB
:1014A000091801E1AFD0170E081802E17C0E0918E7
:1014B00001E1A5D0160E081802E17C0E091801E121
:1014C0009BD0120E081802E17C0E091801E191D0A0
:1014D000110E081802E17C0E091801E187D0100EE8
:1014E000081802E17C0E091801E17DD00F0E0818E2
:1014F00002E17C0E091874E00E0E081802E17C0E61
:1015000009186BE00D0E081802E17C0E091862E064
:101510000C0E081802E17C0E091859E00B0E081891
:1015200002E17C0E091850E00A0E081802E17C0E58
:10153000091847E0090E081802E17C0E09183EE080
:10154000080E081802E17C0E091835E0050E08188F
:1015500002E17C0E09182CE0040E081802E17C0E52
:10156000091823E0030E081802E17C0E09181AE09E
:10157000020E081802E17C0E091811E0010E08188D
:1015800002E17C0E091808E008503EE17C0E0918C3
:101590003BE19290807038D09292807235D09294D4
:1015A000807432D0929680762FD0929880782CD00A
:1015B000929A807A29D09390817026D093928172EA
:1015C00023D09394817420D0939681761DD09398E4
:1015D00081781AD0939A817A17D0939C817C14D009
:1015E000939E817E11D0949082700ED094928272DC
:1015F0000BD09494827408D0949C827C05D0949EE5
:10160000827E02D0959E837EE552E7CFD9FF1200FD
:10161000D9CFE6FFE1CFD9FFFD0EDBCF08F0FE0EFC
:10162000DBCF09F0170E081802E17C0E091801E162
:1016300019D1160E081802E17C0E091801E109D132
:10164000120E081802E17C0E091801E1F9D0110E02
:10165000081802E17C0E091801E1E9D0100E081803
:1016600002E17C0E091801E1D9D00F0E081802E141
:101670007C0E091801E1C9D00E0E081802E17C0E9B
:10168000091801E1B9D00D0E081802E17C0E091805
:1016900001E1A9D00C0E081802E17C0E091801E145
:1016A00099D00B0E081802E17C0E091801E189D0CF
:1016B0000A0E081802E17C0E091801E179D0090E22
:1016C000081802E17C0E09186AE0080E081802E109
:1016D0007C0E09185BE0050E081802E17C0E091863
:1016E0004CE0040E081802E17C0E09183DE0030EE0
:1016F000081802E17C0E09182EE0020E081802E11B
:101700007C0E09181FE0010E081802E17C0E091872
:1017100010E0085001E0ADD07C0E091801E0A9D01E
:101720009290FB0EDB50E8B08080E8B0A2D08090B1
:10173000A0D09292FB0EDB50E8B08082E8B099D046
:10174000809297D09294FB0EDB50E8B08084E8B092
:1017500090D080948ED09296FB0EDB50E8B08086BD
:10176000E8B087D0809685D09298FB0EDB50E8B029
:101770008088E8B07ED080987CD0929AFB0EDB50B7
:10178000E8B0808AE8B075D0809A73D09390FB0E51
:10179000DB50E8B08180E8B06CD081906AD0939241
:1017A000FB0EDB50E8B08182E8B063D0819261D05B
:1017B0009394FB0EDB50E8B08184E8B05AD081945A
:1017C00058D09396FB0EDB50E8B08186E8B051D03C
:1017D00081964FD09398FB0EDB50E8B08188E8B03B
:1017E00048D0819846D0939AFB0EDB50E8B0818AAE
:1017F000E8B03FD0819A3DD0939CFB0EDB50E8B01F
:10180000818CE8B036D0819C34D0939EFB0EDB50A7
:10181000E8B0818EE8B02DD0819E2BD09490FB0E45
:10182000DB50E8B08280E8B024D0829022D094923D
:10183000FB0EDB50E8B08282E8B01BD0829219D058
:101840009494FB0EDB50E8B08284E8B012D082940E
:1018500010D0949CFB0EDB50E8B0828CE8B009D02D
:10186000829C07D0949EFB0EDB50E8B0828EE8A0ED
:10187000829EE552E7CFD9FF1200D9CFE6FFE1CF34
:10188000D9FF020EE126DE6ADD6ADECF14F0DDCF7D
:1018900015F00C0E086E096AFD0EDBCF0DF0FE0E82
:1018A000DBCF0EF0E5EC12F006C016F007C017F023
:1018B0001650145C1750155806E20000DF2A010E7E
:1018C00001E3DB2AE2D7020EE15C02E2E16AE552C3
:1018D000E16EE552E7CFD9FF1200D9CFE6FFE1CFA5
:1018E000D9FF020EE126FC0E00016C25010FA96E46
:1018F0006C51A9240B0BA66EA850FEE1DE6ADD6ACE
:10190000DECF14F0DDCF15F00C0E086E096AFD0E67
:10191000DBCF0DF0FE0EDBCF0EF0E5EC12F006C0D3
:1019200016F007C017F00650145C075015580AE26D
:10193000010EE66E8CEC13F0E552DF2A010EE0E3B7
:10194000DB2ADED7020EE15C02E2E16AE552E16EDB
:10195000E552E7CFD9FF1200D9CFE6FFE1CFD9FF9B
:10196000FE0EDB5000016C25C16E070E6C25C06EAB
:10197000E552E7CFD9FF1200D9CFE6FFE1CFD9FF7B
:10198000FE0EDB500C0A24E0070A20E0010A1CE0EE
:10199000030A18E0010A14E00C0A10E0070A0CE040
:1019A000010A08E0030A04E0010A14E1010E11D063
:1019B000050E0FD0090E0DD00D0E0BD0110E09D053
:1019C000210E07D0250E05D0290E03D02D0E01D0F3
:1019D000310EC26E0A0EE66EE66A7FDFE552E55210
:1019E000C09EC282C2B2FED7C450156AF36E15C043
:1019F000F4FFE552E7CFD9FF1200D9CFE6FFE1CFE0
:101A0000D9FFFE0EDB500C0A24E0070A20E0010A91
:101A10001CE0030A18E0010A14E00C0A10E0070AAF
:101A20000CE0010A08E0030A04E0010A14E1010ED7
:101A300011D0050E0FD0090E0DD00D0E0BD0110ECA
:101A400009D0210E07D0250E05D0290E03D02D0E6A
:101A500001D0310EC26E0A0EE66EE66A3EDFE55236
:101A6000E552C08EC282C2B2FED7C3CFF3FFC4CF4D
:101A7000F4FFE552E7CFD9FF1200D9CFE6FFE1CF5F
:101A8000D9FFFE0EDB50030A67E0020A42E0010ABA
:101A900001E084D0FC0EDBCF08F0FD0EDBCF09F0B7
:101AA000020E081801E1095031E0040E081801E1A6
:101AB00009502AE0080E081801E1095023E0100E31
:101AC000081801E109501CE0200E081801E1095036
:101AD00015E0400E081801E109500EE0800E0818CC
:101AE00001E1095007E0085059E1010E091856E1DB
:101AF000870E0DD0860E0BD0850E09D0840E07D030
:101B0000830E05D0820E03D0810E01D0800ED56EDB
:101B100045D0FC0EDBCF08F0FD0EDBCF09F0010E47
:101B2000081801E1095015E0020E081801E10950FA
:101B30000EE0040E081801E1095007E0080E08182D
:101B40002DE109502BE1B10E05D0A10E03D0910E6D
:101B500001D0810ECD6E22D0FC0EDBCF08F0FD0E41
:101B6000DBCF09F0010E081801E1095015E0020E63
:101B7000081801E109500EE0040E081801E10950AF
:101B800007E0080E08180AE1095008E1B10E05D077
:101B9000A10E03D0910E01D0810EB16EE552E7CFB8
:101BA000D9FF1200D9CFE6FFE1CFD9FF060EE1261B
:101BB000176A186A010E196EFC0EDBCF1AF0FD0EC3
:101BC000DBCF1BF01C6A1A50175C146E1B501858A0
:101BD000156E1C501958166E14C0DEFF15C0DDFFBF
:101BE000146A010E156E14C00DF00E6EDECF08F0F3
:101BF000DDCF09F076EC13F0020E08C0DBFF030E18
:101C000009C0DBFFDECF14F0DDCF15F0156A040E3E
:101C100014C0DBFF050E15C0DBFFFE0EDB50030A10
:101C200012E0020A09E0010A14E1020EDB50D76E4D
:101C3000040EDB50D66E0DD0020EDB50CF6E040EBC
:101C4000DB50CE6E06D0020EDB50B36E040EDB50BE
:101C5000B26E060EE15C02E2E16AE552E16EE55227
:101C6000E7CFD9FF1200D9CFE6FFE1CFD9FF020EAF
:101C7000E126D66AC10ED56EDE6ADD6ADECF14F0CB
:101C8000DDCF15F00C0E086E096AFD0EDBCF0DF0EE
:101C9000FE0EDBCF0EF0E5EC12F006C016F007C02A
:101CA00017F00650145C075015580BE2060ED624A8
:101CB000D66EF294F2A4FED7DF2A010EDFE3DB2A10
:101CC000DDD7020EE15C02E2E16AE552E16EE55227
:101CD000E7CFD9FF1200D9CFE6FFE1CFD9FFA69E0B
:101CE000A69CA684FE0EDB50A96EFD0EDB50A86EEE
:101CF000550EA76EAA0EA76EA682A6B2FED7E55213
:101D0000E7CFD9FF1200D9CFE6FFE1CFD9FFFE0E12
:101D1000DB50A96EA694A69EA69CA680A850E5526C
:101D2000E7CFD9FF1200FD0EA96E0B0EA914A66E07
:101D3000A850FEE17E0E166E0E6EA9CF09F0BAEC29
:101D400013F00538F00B146E156A6AC008F06BC00A
:101D500009F00D6E15C00EF076EC13F008C06DF0B2
:101D600008C0E6FFD0DFE55200016C6F1200D9CF4A
:101D7000E6FFE1CFD9FF040EE126948E949C240E59
:101D8000AC6E900EAB6E080EB86E6CC018F0196A8F
:101D90001A6A1B6A1C6A1B0E1D6EB70E1E6E1F6A26
:101DA0001CC006F01DC007F0086E1FC009F0FB0E36
:101DB000DBCF0BF0FC0EDBCF0CF0FD0EDBCF0DF01C
:101DC000FE0EDBCF0EF052EC13F018500624146E0A
:101DD00019500720156E1A500820166E1B50092046
:101DE000176E1406000E155A165A175A14C0DFFF44
:101DF000010E15C0DBFF020E16C0DBFF030E17C07D
:101E0000DBFFD9CFE9FFDACFEAFFEECF14F0EECF58
:101E100015F0EECF16F0EFCF17F0080ED89017326E
:101E2000163215321432E806F9E11450B06E000E85
:101E3000DB50AF6E040EE15C02E2E16AE552E16E56
:101E4000E552E7CFD9FF1200D9CFE6FFE1CFD9FFA6
:101E5000ACA2FED7FE0EDB5000016C25AD6EE55244
:101E6000E7CFD9FF1200D9CFE6FFE1CFD9FFACA26F
:101E7000FED7FE0EDB5000016C25AD6EE552E7CFBC
:101E8000D9FF1200D9CFE6FFE1CFD9FFACA2FED730
:101E9000B850080B01E0010E146EFE0EDB5014C0AA
:101EA000E7FFE75204E0E8427F0BE706FCE10001B0
:101EB0006C25AD6EE552E7CFD9FF1200D9CFE6FF12
:101EC000E1CFD9FFE6526FC0F6FF70C0F7FF080000
:101ED000F55010E000016FC0F6FF70C0F7FF6F2BE8
:101EE000000E70230800F550DF6EDFCFE6FFBBDF8A
:101EF000E552E9D7E552E552E7CFD9FF1200D9CF35
:101F0000E6FFE1CFD9FFE65271C0F6FF72C0F7FFDE
:101F10000800F55010E0000171C0F6FF72C0F7FF35
:101F2000712B000E72230800F550DF6EDFCFE6FF45
:101F3000A9DFE552E9D7E552E552E7CFD9FF120014
:101F4000D9CFE6FFE1CFD9FF00016E6B6E51E76E8E
:101F5000FD0EDBCFE9FFFE0EDBCFEAFFE750E926FF
:101F6000000EEA22EF5013E06E51E76EFD0EDBCF5C
:101F7000E9FFFE0EDBCFEAFFE750E926000EEA227A
:101F8000EF50E66E70DFE55200016E2BDFD7E552B1
:101F9000E7CFD9FF1200D9CFE6FFE1CFD9FF00018B
:101FA0006E6B6E51E76EFD0EDBCFE9FFFE0EDBCFF1
:101FB000EAFFE750E926000EEA22EF5013E06E51E7
:101FC000E76EFD0EDBCFE9FFFE0EDBCFEAFFE75049
:101FD000E926000EEA22EF50E66E54DFE5520001DA
:101FE0006E2BDFD7E552E7CFD9FF1200D9CFE6FF3E
:101FF000E1CFD9FFE150FD0FE96EFF0EDA20EA6E66
:102000000F0ED880EE54270EED542AE2FD0EDBCFE2
:1020100016F0FE0EDBCF17F0100E0D6E270E0E6EB3
:1020200016C008F017C009F076EC13F008C016F0DF
:1020300009C017F00A0E0D6E0E6A76EC13F004C09C
:1020400016F005C017F000016C5100010424146E55
:10205000000E0520156E300E1424E66E04DFE552E6
:10206000D950FD0FE96EFF0EDA20EA6EE70ED88038
:10207000EE54030EED5422E2FD0EDBCF14F0FE0E03
:10208000DBCF15F0E80E0D6E030E0E6E14C008F0D7
:1020900015C009F076EC13F008C014F009C015F073
:1020A0000A0E0D6E0E6A76EC13F004C014F005C033
:1020B00015F0300E0424E66ED6DEE552D950FD0F41
:1020C000E96EFF0EDA20EA6E630ED880EE54000E41
:1020D000ED5429E2FD0EDBCF16F0FE0EDBCF17F03C
:1020E000640E0D6E0E6A16C008F017C009F076EC8B
:1020F00013F008C016F009C017F00A0E0D6E0E6A34
:1021000076EC13F004C016F005C017F000016C5116
:1021100000010424146E000E0520156E300E1424E8
:10212000E66EA1DEE552D950FD0FE96EFF0EDA2012
:10213000EA6E090ED880EE54000EED5429E2FD0E31
:10214000DBCF16F0FE0EDBCF17F00A0E0D6E0E6A17
:1021500016C008F017C009F076EC13F008C016F0AE
:1021600009C017F00A0E0D6E0E6A76EC13F004C06B
:1021700016F005C017F000016C5100010424146E24
:10218000000E0520156E300E1424E66E6CDEE5524E
:10219000FD0EDBCF16F0FE0EDBCF17F00A0E0D6E34
:1021A0000E6A16C008F017C009F076EC13F004C0F0
:1021B00016F005C017F000016C5100010424146EE4
:1021C000000E0520156E300E1424E66E4CDEE5522E
:1021D000E552E7CFD9FF1200D9CFE6FFE1CFD9FF13
:1021E000020EE1260C0E00016C25BD12070E6C25B7
:1021F000CA6EFD0EA96EA680A850FEE1FD0E00017C
:102200006C25E82494166CC018F0196A1A6A1B6AC7
:10221000100E086E096AFD0EDBCF0DF0FE0EDBCF4F
:102220000EF0B8EC12F006C020F007C021F0226AD0
:10223000236A21AE02D0226823681C6A1B0E1D6E21
:10224000B70E1E6E1F6A1CC006F01DC007F0086E98
:102250001FC009F020C00BF021C00CF022C00DF00F
:1022600023C00EF084EC12F018500624146E19509E
:102270000720156E1A5008201B5009201406000E66
:10228000155A1450CB6ECB28166E176A086E17C0FD
:1022900009F0FB0EDBCF0DF0FC0EDBCF0EF0B8EC3F
:1022A00012F006C014F007C015F0190E0D6E0E6A7C
:1022B00006C008F007C009F05EEC12F008C0DEFFAF
:1022C00009C0DDFF00016C51166E176ADE5016243E
:1022D000146EDD501720156ED89015321432D89038
:1022E000153214321450BE6EDECF16F0DDCF17F06B
:1022F000030E1616000E17166C5100011624146EEC
:10230000000E1720040ED8901436E804FCE1145097
:10231000BD12020EE15C02E2E16AE552E16EE552B5
:10232000E7CFD9FF1200D9CFE6FFE1CFD9FF020EE8
:10233000E1260C0E00016C25BA12070E6C25CA6E40
:10234000FD0EA96EA680A850FEE1FE0E00016C25D0
:10235000E82494166CC018F0196A1A6A1B6A100EE9
:10236000086E096AFD0EDBCF0DF0FE0EDBCF0EF01E
:10237000B8EC12F006C020F007C021F0226A236AF0
:1023800021AE02D0226823681C6A1B0E1D6EB70E98
:102390001E6E1F6A1CC006F01DC007F0086E1FC02D
:1023A00009F020C00BF021C00CF022C00DF023C0BA
:1023B0000EF084EC12F018500624146E1950072009
:1023C000156E1A5008201B5009201406000E155ACD
:1023D0001450CB6ECB28166E176A086E17C009F022
:1023E000FB0EDBCF0DF0FC0EDBCF0EF0B8EC12F0E5
:1023F00006C014F007C015F0190E0D6E0E6A06C067
:1024000008F007C009F05EEC12F008C0DEFF09C05A
:10241000DDFF00016C51166E176ADE501624146E33
:10242000DD501720156ED89015321432D890153221
:1024300014321450BB6EDECF14F0DDCF15F0030E56
:102440001416000E1516040ED8901436E804FCE19C
:102450001450BA12020EE15C02E2E16AE552E16E4A
:10246000E552E7CFD9FF1200DACFE4FFE652E5529A
:10247000E5CFDAFF110057DC84A6FF001F0EE66EE1
:102480007C0EE66E42EC0AF0E552E552640EE66E12
:10249000E66A6DEC0CF0E552E5520F0EE66E7C0E2E
:1024A000E66E42EC0AF0E552E552640EE66EE66A2C
:0C24B0006DEC0CF0E552E552DFD7120095
:0424BC00006A0EAEF6
:1024C00067EF12F00D6C0E1EE86A0E22001E09AEB8
:1024D0006FEF12F0086C091EE86A0922001E76EC04
:1024E00013F009BE7FEF12F000AE000C086C091E5D
:1024F000E86A0922046C051EE86A0522000C00BE89
:1025000076EF12F00188FF0C006AE86A0EAE91EFD8
:1025100012F00B6C0C1E0D1E0E1E0C220D220E2234
:10252000001E09AE9CEF12F0066C071E081E091E65
:10253000072208220922001E52EC13F009BEB3EF55
:1025400012F000AE000C066C071E081E091EE86A99
:10255000072208220922026C031E041E051E032204
:1025600004220522000C00BEA3EF12F00188FF0C2C
:1025700009C013F008C012F008500D02F4CF07F0A4
:10258000F3CF06F009500E02F4CF09F0F3CF08F0B4
:102590000D02F3500726F4500822E86A092212506F
:1025A0000E02F3500726F4500822E86A09220EAE04
:1025B000DEEF12F01250085E1350095A13AE000CF1
:1025C0000D50085E0E50095A000C08C012F0085059
:1025D0000D02F4CF07F0F3CF06F009500E02F4CF4E
:1025E00009F0F3CF08F00D02F3500726F45008224B
:1025F000E86A092212500E02F3500726F45008220E
:06260000E86A0922000C4B
:0A2606002A0EF66E100EF76E000E9D
:10261000F86E00010900F550656F0900F550666F0E
:1026200003E1656701D03DD00900F550606F0900F6
:10263000F550616F0900F550626F09000900F5500F
:10264000E96E0900F550EA6E090009000900F5502D
:10265000636F0900F550646F09000900F6CF67F059
:10266000F7CF68F0F8CF69F060C0F6FF61C0F7FF00
:1026700062C0F8FF0001635302E1645307E0090000
:10268000F550EE6E6307F8E26407F9D767C0F6FF0E
:1026900068C0F7FF69C0F8FF00016507000E665BC0
:0426A000BFD712008E
:0C26A400056A046A036A026A200EE76EF1
:1026B000D890063607360836093602360336043611
:1026C00005360B50025C0C5003580D5004580E5048
:1026D000055809E30B50025E0C50035A0D50045A82
:0C26E0000E50055A062AE72EE4D712001F
:0426EC00056A046A0D
:1026F000100EE76ED89008360936043605360D50B0
:10270000045C0E50055805E30D50045E0E50055A4A
:08271000082AE72EF0D71200A1
:08271800FF0EE350246E480E91
:1027200001D04C0EE76EE72EFED7E76AE72EFED704
:08273000242EF7D7000012006F
:08273800000EF36E00EE00F04C
:10274000080E01D81200EA6002D0EE6AFCD7F350FE
:08275000E9601200EE6AFCD7FB
:0827580013EE00F023EE00F087
:10276000F86A019C03EC13F0C8EC13F03BEC12F098
:04277000FBD7120081
:0C277400056A080EE76ED890093605369D
:102780000E50055C02E3056E092AE72EF7D712000A
:02279000120035
:05279200DF0F0FDF0066
:00000001FF
